:03000000020E39B4
:0C0E3900787FE4F6D8FD758126020E805B
:1012F600D3EF9400EE9400400F7D267C82DCFEDD69
:08130600FAEF1F70EB1E80E8F6
:01130E0022BC
:100D370075133275140A438901758CFF758A9CD225
:100D4700A9D2AF120EC512129D7BFF7A05797D7D60
:100D5700017F0112100E7BFF7A05795D7D087F0107
:100D670012100E7BFF7A04794D7D607F0312100EFF
:100D77007BFF7A04796D7D687F0312100E7BFF7A03
:100D870004796D7D707F0312100EE4FD7F0112134D
:100D97000F7F0112127CEF700D7BFF7A0379BD7D07
:100DA700707F031210EA12107B1205FDE514B40AD6
:100DB7000612084DE4F514E513B43209121327128D
:100DC7000C17E4F513E51064017059E511652070FF
:100DD70053E512651F704DD28C7D687F0312123662
:100DE7007BFF7A04796D7D687F0312100E7BFF7A93
:100DF70004796D7D707F0312100E7D187F05121226
:100E0700367D207F051212367D287F051212367D2A
:100E1700307F051212367D387F05121236E4F51041
:100E2700F50EF50F7F017E001212F6051305140269
:020E37000D911B
:03000B000211736C
:04117300C0E0C0D048
:10117700758CFF758A9CB2950526E52670020525B4
:10118700B4980DE525B43A08752500752600C28C7C
:05119700D0D0D0E032D1
:10037D00002018C744444444FC4444444404000051
:10038D000404040704040404FF0404040404040026
:10039D00000000FE2222222222222222FE00000044
:1003AD008040300F02020202020242827F000000F2
:1003BD00000000FE82828282828282FE00000000A6
:1003CD00000000FF40404040404040FF0000000062
:1003DD00000000C0C0000000000000303000000030
:1003ED00008080E0E080800000000003030000003A
:1003FD008080808080808000000000000000000070
:10040D0000000000000000000000000C0C000000C7
:10041D00060909E6F80C040202020202041E00009D
:10042D00000000071F3020404040404020100000D9
:10043D0030300080C06030000C060301000C0C0051
:10044D00E01008080810E0000F10202020100F0009
:10045D0008F830C00008F808203F200007183F00BA
:10046D0008F88888E8081000203F200003000000ED
:10047D0080808080808080808080808080808000EF
:10048D00000000000000000000000000000000005F
:10049D0000000808080808080808080808000000F7
:1004AD00101010101010101010101010101010004F
:1004BD00000484848484848484848484840400007B
:1004CD00202020202020202020202020202020003F
:1004DD0000FC040404FC040404FC040404FC0000FB
:1004ED00007F28242320202020212222227F00008B
:1004FD000002424242C27E42424242C20202000019
:10050D0040404040784740404040407F40404000A0
:10051D0020202020202021222C20202020202000DF
:10052D00004020100C0300000001020418600000C0
:10053D00000000FE82828282828282FE0000000024
:10054D00000000FF40404040404040FF00000000E0
:10055D0000E010080810E000000F102020100F0020
:10056D00001010F8000000000020203F20200000A7
:10057D0000700808088870000030282422213000FF
:10058D0000300888884830000018202020110E0007
:10059D000000C02010F8000000070424243F2400B0
:1005AD0000F80888880808000019212020110E0085
:1005BD0000E0108888180000000F112020110E0097
:1005CD0000380808C83808000000003F000000008F
:1005DD000070880808887000001C222121221C0050
:1005ED0000E010080810E0000000312222110F0079
:10119C00C293C292E4FDC290EF30E704D291800278
:1011AC00C291D290EF7801088005C333CE33CED8EC
:0611BC00F9FF0DBD08E083
:0111C200220A
:061119001202CBFF7E0074
:10111F00C293D292E4FDC290EF30E704D2918002E5
:10112F00C291D290EF7801088005C333CE33CED869
:06113F00F9FF0DBD08E000
:011145002287
:0711460012119C7F057E00E1
:10114D00E4FDFCC3ED9FEE6480F8EC6480985015CF
:10115D00E4FBFA0BBB00010AEB646E4A70F50DBDA2
:05116D0000010C80DE12
:01117200225A
:100EC500C293C2947F647E0012114DD2947F141296
:100ED500114D7FE21211467F2C1211467F2E121101
:100EE500467F2F1211467F2312119C7F817E0012AF
:100EF500119C7F287E0012119C7FA27E0012119CFE
:100F05007FC87E0012119C7FA07E0012119C7F403D
:0F0F15007E0012119C7FAF7E0012119CD293229E
:1011EA00AC05C2931C1FEF24B0FFE433FE12119C1E
:1011FA00ECC4540F2410FFE433FE12119CEC540F7C
:06120A00FF7E0002119CB2
:10129D00C293E4FBEB04FF7D011211EAE4FCE4FFD1
:0E12AD00FE12111F0CBC84F60BBB09E8D29395
:0112BB002210
:0410EA008F1B8D1CAF
:1010EE00C293E4F51DE51B251DFFAD1C1211EAE4AC
:1010FE00FC121119740129F9E43AFA0CBC10F2052C
:0A110E001DE51DC3940240DDD293DD
:0111180022B4
:100FFD00C4540F75F010A4245DF9740535F0FA7F13
:01100D0001E1
:04100E008F1B8D1C8B
:10101200C293E4F51DE51B251DFFAD1C1211EAE488
:10102200FC121119740129F9E43AFA0CBC08F20510
:0A1032001DE51DC3940240DDD293BA
:01103C002291
:04123600AB05A90754
:10123A00C293E4FAE92AFFAD031211EAE4FCE4FFDF
:0E124A00FE12111F0CBC08F60ABA02E8D2937D
:011258002273
:10084D0012133EE524C4540F75F010A4245DF97401
:10085D000535F0FA7BFF7D107F0112100EE5245453
:10086D000F75F010A4245DF9740535F0FA7D187F2D
:10087D000112100E7A03797D7D207F011210EAE5B9
:10088D00227D30120FFDE522540F75F010A4245D6A
:10089D00F9740535F0FA7D387F0112100E7A03795F
:1008AD009D7D407F011210EAE5217D50120FFDE57F
:1008BD0021540F75F010A4245DF9740535F0FA7DFF
:1008CD00587F0112100E7A0379BD7D607F011210E1
:1008DD00EAE523540F75F020A4245DF9740435F076
:1008ED00FA7D727F011210EAE520C4540F75F010E5
:1008FD00A4245DF9740535F0FA7D187F0312100EEE
:10090D00E520540F75F010A4245DF9740535F0FA47
:10091D007D207F0312100E7A0379DD7D287F03126F
:10092D00100EE51FC4540F75F010A4245DF9740565
:10093D0035F0FA7D307F0312100EE51F540F75F060
:10094D0010A4245DF9740535F0FA7D387F0312107B
:10095D000E7A0379DD7D407F0312100EE51EC4541F
:10096D000F75F010A4245DF9740535F0FA7D487FFC
:10097D000312100EE51E540F75F010A4245DF974CA
:0B098D000535F0FA7D507F0302100ECC
:040C17008E158F1691
:100C1B00C3E51564809480501D7BFF7A0379FD7DBD
:100C2B00107F0712100EE5161516700215156316B8
:100C3B00FF6315FF800D7BFF7A0379ED7D107F0736
:100C4B0012100EAC15AD16EC1202118F1A8E198DF7
:100C5B00188C17E4FFFE7DC87C40AB1AAA19A918A3
:100C6B00A817120106E4FBFAF9783F1200151202DD
:100C7B004A8E158F16AE15AF167C277D101202E427
:100C8B007E037FE8CFCDCFCECCCE1202E4EFC4F8FB
:100C9B00540FC868FFEEC454F048FE745D2FF9740E
:100CAB00053EFA7BFF7D187F0712100EAE15AF16AF
:100CBB007C037DE81202E47E007F64CFCDCFCECCE7
:100CCB00CE1202E4EFC4F8540FC868FFEEC454F020
:100CDB0048FE745D2FF974053EFA7D207F071210D4
:100CEB000E7A04790D7D287F0712100EAE15AF1604
:100CFB007C007D641202E47E007F0ACFCDCFCECC88
:100D0B00CE1202E4EFC4F8540FC868FFEEC454F0DF
:100D1B0048FE745D2FF974053EFA7D307F07121083
:0C0D2B000E7A04791D7D387F070210EA63
:1013540081838587898B8D80828486888A8C00210D
:05136400171812031927
:0912DA00071E00000000000000E6
:1010B500C2A200C2A000D2A200E4FEEF1392A1EFEB
:1010C500C313FFD2A000C2A0000EBE08EEE4FEEDE1
:1010D5001392A1EDC313FDD2A000C2A0000EBE085D
:0410E500EEC2A200B5
:0110E90022E4
:100F7100C2A200C2A000D2A200E4FDEF1392A1EF31
:100F8100C313FFD2A000C2A0000DBD08EE00E4FD16
:100F9100A2A1E433FFC43333335480FCEEC3134CBA
:100FA100FED2A000C2A0000DBD08E5C2A200D2A0E1
:090FB10000C2A100D2A100AF06AC
:010FBA002214
:10125900E4FD7F8E1210B5E4FCEC90135B93FFEC78
:1012690090136293FD1210B50CBC07ED7D807F8E43
:031279000210B5AB
:10133E00E4FBEB90135493FF120F71741E2BF8A65F
:05134E00070BBB07EDD9
:011353002277
:0513780012137DD2B745
:08137D007F017E02DEFEDFFAB3
:011385002245
:0F136900D2B6121378C2B612137DC2B702137D2B
:0A138600C2B6121378D2B602137D2E
:070F24001213697D017FA09B
:040F2B00AB07A90562
:100F2F00E4FDFAEBC4131313540124FF92B6EB251F
:100F3F00E0FB121378C2B712137D0DBD08E5D2B6D0
:100F4F0012137DD2B730B612B9010F0AEAD394C883
:100F5F0040F3C2B712137D7F0022C2B712137D7FF9
:010F6F000180
:010F7000225E
:10121000E4FDFCD2B612137DD2B712137DEC25E0AB
:10122000FCA2B6E433420412137DC2B712137D0D43
:05123000BD08E5AF045C
:011235002296
:10130F008F15AC05120F247D01AF15120F2BAF04F3
:08131F00E4FD120F2B021386FE
:02127C00AC07BD
:10127E00120F24AF047D01120F2B1213697D017F13
:0E128E00A1120F2B121210AD07121386AF051E
:01129C00222F
:1012BC00D3EF9400EE940040147D6E7C00ED1D7015
:0D12CC00011CED4C70F7EF1F70E61E80E373
:0112D90022F2
:1011C300C2967B46AF031BEF70FAD296E4FB3096D0
:1011D300130BEBD3940540037F00227F017E0012A3
:0611E30012BC80EA7F014E
:0111E90022E3
:0C0FBB001211C37F017E001212BC7FCC1B
:100FC700E4FBFAC2960517E51770020516EF1392B0
:100FD70096751600751706E5171517AC16700215E6
:100FE700164C70F3D296EFC313FF0BBB00010AEB4D
:050FF70064084A70CE01
:010FFC0022D2
:10103D007D087C00C2960FBF0000D2960FBF000046
:10104D000FBF0000A296E433C43333335480FBE961
:10105D00C3134BF97E007F04EF1FAA0670011E4AD1
:0D106D0070F6ED1D70011CED4C70C9AF0157
:01107A002253
:08000300120FBB7F44020FC77E
:08139000120FBB7FBE020FC764
:10132700E4FFFE12000312139012103D8F151210E6
:061337003DEFFEE515FF8D
:01133D00228D
:1012E300010800010900010A01010B01010C0001C1
:0212F3000D00EC
:10107B0030B20930B30630B40320B52B7F017E00AC
:10108B001212F620B20630B2FD7F012220B30630D9
:10109B00B3FD7F022220B40630B4FD7F032220B5BE
:0A10AB000630B5FD7F04227F00220D
:100998008D16EF64016003020AE2FD7F8E1210B526
:1009A800E516B40123E524540FFFBF0912E524C45A
:1009B800540FF5240524E524C454F0F524800205D9
:1009C80024AD247F8C1210B5E5166402702BE52245
:1009D800540FFFBF0912E522C4540FF5220522E582
:1009E80022C454F0F52280020522E522B4130375CF
:1009F8002201AD227F881210B5E5166403702BE53D
:100A080021540FFFBF0912E521C4540FF521052118
:100A1800E521C454F0F52180020521E521B4320313
:100A2800752101AD217F861210B5E516B4041105B4
:100A380023E523B40803752301AD237F8A1210B57B
:100A4800E5166405702BE520540FFFBF0912E52059
:100A5800C4540FF5200520E520C454F0F520800289
:100A68000520E520B42403E4F520AD207F8412108E
:100A7800B5E5166406702BE51F540FFFBF0912E594
:100A88001FC4540FF51F051FE51FC454F0F51F8040
:100A980002051FE51FB46003E4F51FAD1F7F821236
:100AA80010B5E5166407702BE51E540FFFBF091239
:100AB800E51EC4540FF51E051EE51EC454F0F51EB0
:100AC8008002051EE51EB46003E4F51EAD1E7F809E
:0B0AD8001210B57D807F8E1210B52239
:100AE3008D16EF64026003020C16FD7F8E1210B5A3
:100AF300E51664017024E524540F7015E524C454ED
:100B03000FF5241524E524C454F0F5244324098067
:100B1300021524AD247F8C1210B5E5166402702BE8
:100B2300E522540F7015E522C4540FF5221522E572
:100B330022C454F0F52243220980021522E52270D3
:100B430003752212AD227F881210B5E51664037077
:100B53002BE521540F7015E521C4540FF521152100
:100B6300E521C454F0F52143210980021521E52133
:100B73007003752131AD217F861210B5E516B404DB
:100B83000DD52303752307AD237F8A1210B5E51610
:100B930064057024E520540F7015E520C4540FF547
:100BA300201520E520C454F0F520432009800215C8
:100BB30020AD207F841210B5E51664067024E51F6E
:100BC300540F7015E51FC4540FF51F151FE51FC4FF
:100BD30054F0F51F431F098002151FAD1F7F8212BA
:100BE30010B5E51664077024E51E540F7015E51E55
:100BF300C4540FF51E151EE51EC454F0F51E431E06
:100C0300098002151EAD1E7F801210B57D807F8E78
:040C13001210B522E4
:0205FD008F1558
:1005FF00E50964016009E515640460030206BBE5C3
:10060F000A640160030206BBF50BE515B40402058D
:10061F0008750901E50814B4080040030206AD90FF
:10062F00063C75F003A4C58325F0C58373020654F9
:10063F0002065F02066A02067502067B0206880240
:10064F0006950206A57D107F011212367D188018BF
:10065F007D307F011212367D38800D7D507F011263
:10066F0012367D5880027D787F0180257D187F03AB
:10067F001212367D207F0380187D307F03121236D1
:10068F007D387F03800B7D487F031212367D507FAC
:10069F00031212368008E4F508F509750B01AD0851
:1006AF00AF15120998AD08AF15120AE3E50D6401F5
:1006BF006009E5156403600302084CE50B640160F3
:1006CF000302084C750D01751001E50970148520A2
:1006DF000E851F0F7D687F031212367D707F031208
:1006EF001236E4F50A7509017BFF7A04795D7D689E
:1006FF007F0312100EE50EC4540F75F010A4245D85
:10070F00F9740535F0FA7BFF7D187F0512100EE5A1
:10071F000E540F75F010A4245DF9740535F0FA7BB3
:10072F00FF7D207F0512100E7BFF7A0379DD7D2878
:10073F007F0512100EE50FC4540F75F010A4245D41
:10074F00F9740535F0FA7BFF7D307F0512100EE549
:10075F000F540F75F010A4245DF9740535F0FA7B72
:10076F00FF7D387F0512100EE515B40402050CE568
:10077F000C24FE601214601F240270217D187F0567
:10078F001212367D2080097D307F051212367D389A
:10079F007F051212368006750A01E4F50DE50C642B
:1007AF00017043E515B4011CE50E540FFFBF09128C
:1007BF00E50EC4540FF50E050EE50EC454F0F50EFC
:1007CF008002050EE515B4021DE50E540F7015E5F8
:1007DF000EC4540FF50E150EE50EC454F0F50E436E
:1007EF000E098002150EE50C64027043E515B40185
:1007FF001CE50F540FFFBF0912E50FC4540FF50F7F
:10080F00050FE50FC454F0F50F8002050FE515B481
:10081F00021DE50F540F7015E50FC4540FF50F159A
:10082F000FE50FC454F0F50F430F098002150FE5C4
:0D083F000CB40309850F12850E11E4F50CB1
:01084C002289
:10000E000202B6E86480F8E933E83360110460F068
:10001E00ED33EC337009E8FCE9FDEAFEEBFF220458
:10002E0060DED3EB9FEA9EE99DE8C2E78CF0C2F753
:10003E0095F0400CE8CCF8E9CDF9EACEFAEBCFFB1F
:10004E0012028185D0F05804700320D5B3E80470F5
:10005E00075002B2D50202C092D5EC0460F7E4CC90
:10006E00C0E0C398F8603B94186008400DD0E0FBE8
:10007E00020298E4FBFAC9FC8028E830E406E4C9E1
:10008E00FBE4CAFCE830E305E4C9CACBFCE854073C
:10009E006010F8C3E913F9EA13FAEB13FBEC13FC47
:1000AE00D8F130F52FC3E49CFCEF9BFFEE9AFEEDEA
:1000BE0099FDD0E0FBEF4E4D4C701222DB03020295
:1000CE00BDEC2CFCEF33FFEE33FEED33FDED30E7F0
:1000DE00EB020298EF2BFFEE3AFEED39FDD0E0FB7E
:1000EE0050130BBB00030202C0ED13FDEE13FEEF27
:0800FE0013FFEC13FC02029851
:10010600EC4D6011E8497017ED33EC3304600DE4F3
:10011600FCFFFEFD22E933E8330470F80202B61252
:10012600028158046009E4CC248150062850090253
:1001360002C02840030202BDC0E0EB4A7044B98009
:1001460006D0E0FB0202ACEF4E701CBD8008EBFF50
:10015600EAFEE9FD80EBE98DF0A4FEE5F00201EF91
:10016600E9CDF9EAFEEBFFEF89F0A4FCE5F0CE89D4
:10017600F0A42EFFE435F0CD89F0A42DFEE435F091
:100186008067EF4E7005BD80D780C3EF8BF0A4ACBF
:10019600F0EE8BF0A42CFCE435F0F8EF8AF0A42CFA
:1001A600E5F038FCE433CB8DF0A42CFCE5F03BF80D
:1001B600EE8AF0A42CFCE5F038F8E433CF89F0A4FD
:1001C6002CFCE5F038CF3400CE89F0A42FFFE5F003
:1001D6003EFEE433C98DF0A42EFEE5F039CD8AF05B
:1001E600A42FFFE5F03EFEE43DFD33D0E0FB5007D3
:1001F6000BBB000F0202C0EC2CFCEF33FFEE33FE0C
:06020600ED33FD02029839
:10020C0075F020800E75F010800575F0087D007E6D
:10021C00007F003392D530D50312031AEC33401013
:10022C00EF33FFEE33FEED33FDEC33FCD5F0ED2276
:0E023C00E5F0247EA2D513CC92E7CDCEFF22B2
:10024A00EDD2E7CD33EC3392D524814006E4FFFEAC
:10025A00FDFC22FCE4CFCECDCC24E0501174FF800B
:10026A00EDC3CC13CCCD13CDCE13CECF13CF0470A8
:07027A00F030D5DE02031A8B
:10028100E9D2E7C933E833F892D5EDD2E7CD33ECC3
:0702910033FC5002B2D5223C
:10029800EC30E7100FBF000C0EBE00080DBD0004C7
:1002A8000BEB6014A2D5EB13FCED92E7FD2274FF73
:1002B800FCFDFEFF22E480F8A2D574FF13FC7D80CC
:0302C800E480EFE0
:100E4500020D37E493A3F8E493A34003F68001F27F
:100E550008DFF48029E493A3F85407240CC8C333AE
:100E6500C4540F4420C8834004F456800146F6DF7D
:100E7500E4800B01020408102040809012DAE47E21
:100E8500019360BCA3FF543F30E509541FFEE49372
:100E9500A360010ECF54C025E060A840B8E493A339
:100EA500FAE493A3F8E493A3C8C582C8CAC583CA64
:100EB500F0A3C8C582C8CAC583CADFE9DEE780BE1C
:0112F50000F8
:1002CB00BB010689828A83E0225002E722BBFE0231
:0902DB00E32289828A83E4932264
:1002E400C2D5EC30E709B2D5E4C39DFDE49CFCEE35
:1002F40030E715B2D5E4C39FFFE49EFE120328C382
:10030400E49DFDE49CFC800312032830D507C3E47C
:060314009FFFE49EFE22A3
:0E031A00C3E49FFFE49EFEE49DFDE49CFC22F4
:10032800BC000BBE0029EF8DF084FFADF022E4CCB9
:10033800F875F008EF2FFFEE33FEEC33FCEE9DEC82
:10034800984005FCEE9DFE0FD5F0E9E4CEFD22EDC8
:10035800F8F5F0EE8420D21CFEADF075F008EF2F12
:10036800FFED33FD4007985006D5F0F222C398FD03
:050378000FD5F0EA22A0
:00000001FF
